:100000000C94DF000C9407010C9407010C94070179
:100010000C9407010C9407010C9407010C94070140
:100020000C9407010C9407010C9407010C94070130
:100030000C9407010C9407010C9407010C94070120
:100040000C94BD030C9407010C9407010C94070158
:100050000C9407010C9407010C9407010C94070100
:100060000C9407010C94070100407A10F35A00A089
:10007000724E18090010A5D4E80000E87648170071
:1000800000E40B54020000CA9A3B000000E1F505B1
:10009000000080969800000040420F000000A086FB
:1000A00001000000102700000000E803000000002D
:1000B0006400000000000A000000000001000000D1
:1000C00000002C76D888DC674F0823DFC1DFAE59EB
:1000D000E1B1B796E5E3E453C63AE651997696E87E
:1000E000E6C28426EB898C9B62ED407C6FFCEFBC02
:1000F0009C9F40F2BAA56FA5F490055A2AF75C932D
:100100006B6CF9676DC11BFCE0E40D47FEF520E662
:10011000B500D0ED902E0300943577050080841E45
:10012000080000204E0A000000C80C333333330FA0
:10013000986E12831141EF8D2114893BE65516CF3D
:10014000FEE6DB18D1844B381BF77C1D901DA4BB49
:10015000E424203284725E228100C9F124ECA1E5FE
:100160003D2700000000240027002A0000000000B6
:10017000250028002B000000000023002600290095
:10018000040404040404040402020202020203033D
:100190000303030301020408102040800102040845
:1001A00010200102040810200000000800020100D5
:1001B0000003040700000000000000007C0511247B
:1001C0001FBECFEFD8E0DEBFCDBF21E0A8E5B1E094
:1001D00001C01D92AF37B207E1F711E0A0E0B1E036
:1001E000E2E9F6E102C005900D92A835B107D9F712
:1001F00010E0CFEDD0E004C02197FE010E944F092E
:10020000CE3DD107C9F70E9407040C94470B0C940C
:100210000000AF92BF92CF92DF92EF92FF920F93C6
:100220001F93CF93DF936C017B018B01040F151F8C
:10023000EB015E01AE18BF08C017D10759F06991F4
:10024000D601ED91FC910190F081E02DC601099558
:10025000892B79F7C501DF91CF911F910F91FF9005
:10026000EF90DF90CF90BF90AF900895833081F0F2
:1002700028F4813099F08230A9F008958730A9F0F0
:100280008830C9F08430B1F4809180008F7D03C044
:10029000809180008F7780938000089584B58F7758
:1002A00084BD089584B58F7DFBCF8091B0008F779A
:1002B0008093B00008958091B0008F7DF9CF1F9397
:1002C000CF93DF93282F30E0F901E855FE4F84915A
:1002D000F901EC56FE4FD491F901E058FE4FC4915C
:1002E000CC23A9F0162F81110E943601EC2FF0E0EB
:1002F000EE0FFF1FE459FE4FA591B4918FB7F8940C
:10030000EC91111108C0D095DE23DC938FBFDF91F3
:10031000CF911F910895DE2BF8CFCF93DF9390E01C
:10032000FC01EC56FE4F249180589E4FFC018491B5
:100330008823D1F090E0880F991FFC01EE59FE4F01
:10034000A591B491FC01E459FE4FC591D49162305E
:1003500071F49FB7F8943C91822F809583238C93FE
:10036000E8812E2B28839FBFDF91CF9108958FB70F
:10037000F894EC912E2B2C938FBFF6CF3FB7F894C7
:1003800080915D0190915E01A0915F01B09160014B
:1003900026B5A89B05C02F3F19F00196A11DB11DE0
:1003A0003FBFBA2FA92F982F8827BC01CD01620F1C
:1003B000711D811D911D42E0660F771F881F991FD7
:1003C0004A95D1F708958F929F92AF92BF92CF92A4
:1003D000DF92EF92FF920E94BE014B015C0188EE1A
:1003E000C82E83E0D82EE12CF12C0E94BE016819A2
:1003F00079098A099B09683E734081059105A8F334
:1004000021E0C21AD108E108F10888EE880E83E0E5
:10041000981EA11CB11CC114D104E104F10429F7F8
:10042000FF90EF90DF90CF90BF90AF909F908F9014
:100430000895089590E080E00895FC010190002067
:10044000E9F73197AF01481B590BBC0183E691E0F6
:100450000C940901CF93DF93EC0188819981009777
:1004600011F00E94F109198218821D821C821B82E0
:100470001A82DF91CF910895CF93DF93EC0160E072
:100480008E810E945F0161E08E810E945F0160E0C9
:100490008E810E945F018BE891E00197F1F7DF9177
:1004A000CF910895CF92DF92EF92FF920F931F9317
:1004B000CF93DF936C017C0187E0E80EF11CD0E064
:1004C000C0E0062F10E0B8010C2E02C075956795AC
:1004D0000A94E2F76170F70181917F010E945F0148
:1004E0002196C430D10579F7C601DF91CF911F91D4
:1004F0000F91FF90EF90DF90CF900C943C02CF9241
:10050000DF92EF92FF920F931F93CF93DF93EC0153
:10051000F62E642F8C810E945F018D818F3F19F030
:1005200060E00E945F010F2D10E08F8584FF25C0E1
:100530006E0187E0C80ED11CF12CE12CB8010E2C05
:1005400002C0759567950A94E2F76170F601819192
:100550006F010E945F01FFEFEF1AFF0A88E0E816C3
:10056000F10461F7CE01DF91CF911F910F91FF90C0
:10057000EF90DF90CF900C943C02B80184E0759529
:1005800067958A95E1F7CE010E9452026F2DCE0148
:10059000DF91CF911F910F91FF90EF90DF90CF905F
:1005A0000C94520240E0682F83E691E00C947F02A5
:1005B00081E00E94D2028BE39FE10197F1F7089559
:1005C000CF93DF93823029F49091720198609093D9
:1005D0007201809376011092770180E48093780114
:1005E00080E18093790180E580937A0161E08091D8
:1005F00067010E948D01809168018F3F19F061E0D1
:100600000E948D0161E0809169010E948D01C3E625
:10061000D1E09E01235631408091720184FD0BC0D0
:1006200084E090E021962817390744F461E08E8138
:100630000E948D01EECF88E090E0F4CF8BE39DE047
:100640000197F1F760E0809167010E945F0160E02F
:10065000809169010E945F01809168018F3F19F0CC
:1006600060E00E945F018091720184FD34C063E00C
:1006700083E691E00E945202CBE4D6E4CE010197DA
:10068000F1F763E083E691E00E9452022197F1F7CF
:1006900063E083E691E00E94520283E592E00197D5
:1006A000F1F762E083E691E00E94520280917201CC
:1006B00080620E94D20284E0809373018CE00E94E9
:1006C000D2020E94D80282E08093740186E0DF911A
:1006D000CF910C94D20280620E94D2028BE496E405
:1006E0000197F1F78091720180620E94D20283E546
:1006F00092E00197F1F78091720180620E94D2022C
:10070000D5CF90917601891710F08FEF890FE82FE0
:10071000F0E0ED59FE4F848980680C94D20241E0EC
:100720000E947F0281E090E008950F931F93CF9382
:10073000DF93EC0188819981009759F02A813B81F0
:100740002617370730F081E0DF91CF911F910F918D
:1007500008958B016F5F7F4F0E947A0A009759F0CE
:10076000998388831B830A832C813D81232B59F72E
:10077000FC011082E8CF80E0E7CF1F920F920FB606
:100780000F9211242F933F938F939F93AF93BF9317
:100790008091590190915A01A0915B01B0915C0147
:1007A0003091580123E0230F2D3758F50196A11DF4
:1007B000B11D209358018093590190935A01A09341
:1007C0005B01B0935C0180915D0190915E01A0910D
:1007D0005F01B09160010196A11DB11D80935D0183
:1007E00090935E01A0935F01B0936001BF91AF91C0
:1007F0009F918F913F912F910F900FBE0F901F905F
:10080000189526E8230F0296A11DB11DD2CFCF93D4
:10081000DF93CDB7DEB7A7970FB6F894DEBF0FBE54
:10082000CDBF789484B5826084BD84B5816084BD79
:1008300085B5826085BD85B5816085BD80916E007E
:10084000816080936E0010928100809181008260AF
:1008500080938100809181008160809381008091EC
:1008600080008160809380008091B10084608093DB
:10087000B1008091B00081608093B00080917A00D7
:10088000846080937A0080917A00826080937A00FD
:1008900080917A00816080937A0080917A008068EC
:1008A00080937A001092C10082E00E94E00280E012
:1008B0000E94810382E191E00E941D020E94E301F7
:1008C00062E088E00E948D0161E089E00E948D0174
:1008D00060E089E00E945F019CE9292E91E0392EB9
:1008E00028E8422E21E0522E30E0632E30E0732EB5
:1008F000CC24C394D12C80E480937C0080917A0036
:10090000806480937A0080917A0086FDFCCF80918C
:10091000780060917900762F682F072E000C880BE5
:10092000990B0E94F10724E13EEA43E251E40E9460
:10093000D8084B015C010E94D80280E00E9481032C
:1009400083E291E00E941D0281E00E9481031BA2CC
:100950001AA21DA21CA21FA21EA28E010F5F1F4F72
:1009600022E044E0C501B4010E949A057C01009791
:1009700079F0FC0101900020E9F731978F01081B05
:10098000190BB801CE0182960E949503811181C096
:10099000CE0182960E942A021A8219821C821B8230
:1009A0001E821D820AA11BA10115110569F0EEA08E
:1009B000FFA0B701CE0101960E949503811171C07D
:1009C000CE0101960E942A020D811E810E5F1F4FEB
:1009D000B801CE0101960E949503882309F469C0ED
:1009E00029813A818D819E8162E371E0820F931F9C
:1009F0000E94400B1E830D834D815E8169817A8147
:100A000083E691E00E94090189819A81009711F0A3
:100A10000E94F1098AA19BA1009711F00E94F1099F
:100A20000E94E30120E030E046E952E4C501B40150
:100A30000E944A0918160CF041C00E94D80280E0BA
:100A40000E94810385E391E00E941D02D092620121
:100A5000C0926101E0EBF1E08491F1011491F201A7
:100A60000491011139C00E94E301809161019091CC
:100A7000620160E0892B09F061E089E00E945F017A
:100A80000E94E3016114710409F435CF0E94000053
:100A900032CF1FA30EA3B7018AA19BA10E94400BD6
:100AA0007BCFFE82ED82B80189819A810E94400B42
:100AB0008BCFCE0101960E942A029ECF0E94D802BF
:100AC00080E00E94810386E491E00E941D02109262
:100AD000620110926101BECF81110E943601E02FA8
:100AE000F0E0EE0FFF1FEA58FE4FA591B4918C91F4
:100AF000182309F4B8CFB9CFE3E6F1E013821282EC
:100B00008AE091E09183808387E084838FEF8583FF
:100B100086E0868385E0878384E0808783E0818721
:100B200082E082871386148615861686178681E0F2
:100B30000C94E002EF920F931F93CF93DF93E801A1
:100B400034E047FD34E1042E000C550B57FF03C081
:100B5000519541955109E32E022F242FAE010E9499
:100B6000B805CE01DF91CF911F910F91EF900895BD
:100B7000A9E0B0E0EEEBF5E00C94A7086A01F22ED4
:100B8000B02E102FFBE3AF2EA01608F41BE31F5F5F
:100B9000012F27E0AE014F5F5F4F0E941707BC0196
:100BA0008981982F9970913009F43FC09BE2E1FC54
:100BB00004C09E2D9170E0FC3AC05E2D5071E82F6C
:100BC000E87083FF46C084E0911101C083E0EF2DFF
:100BD000E81B8F1508F0E0E0D6018E2F20E25523A8
:100BE00051F1992329F0D6019C93C60101966C011D
:100BF00096012D5F3F4FE2FE24C08EE4D6018C9318
:100C000091E411969C93119712968C93D9018E2F93
:100C100090E281111BC0E20FF32FF11D10828EEFC5
:100C20009FEF2996ECE00C94C3089DE2C6CF90E2BA
:100C3000C4CF2D9381508111FCCFCE0ED11CE0E0AA
:100C4000D0CF8EE6D6018C9391E6DBCF9D93815079
:100C5000E0CF482F447082FF3DC084E0911101C075
:100C600083E08F1510F4EF2DE81BD6018E2F20E2C4
:100C7000552309F1992329F0D6019C93C6010196C9
:100C80006C0196012D5F3F4FE2FE1BC089E4D60147
:100C90008C938EE411968C93119786E412968C9324
:100CA000D9018E2F90E2882309F4B5CF9D9381500E
:100CB000FACF2D9381508111FCCFCE0ED11CE0E0F4
:100CC000D9CF89E6D6018C938EE611968C93119735
:100CD00086E6E4CF9B0177FF02C030E020E0A1E090
:100CE000B0E0911102C0B0E0A0E0F9013196AE0F82
:100CF000BF1F8B2C912CBB2009F461C05401EFEF76
:100D0000AE1ABE0AAA0DBB1DFA161B0619F014F086
:100D10004F2D4A1B511188C0E3FC59C07601A42F06
:100D2000B0E2A1114FC0C40ED11C992309F45BC0DD
:100D300040E0D6011196F60190836D01552309F428
:100D400048C0012F060F9A81582F507184FF03C0AD
:100D5000913309F4015010160CF047C0093008F027
:100D600008E0EEE2FE2E5B01A01AB1088501919425
:100D7000819491082F3F320729F4D601FC92F601A5
:100D800031966F016217730794F1021713077CF510
:100D9000DB01A21BB30BAA24A394B12CAC0EBD1E85
:100DA000AA0DBB1D11968C9121503109D6011196C7
:100DB00028153905F4F0F60180836D01DBCFB12CE5
:100DC000A12CA0CFF701B1937F01A150AACF91111F
:100DD000B0CFD601942F50E302C05D939150911192
:100DE000FCCFC40ED11C40E0ACCF01E0BACF80E311
:100DF000DBCF6217730731F4963388F4953311F41F
:100E0000552369F0F6018083FD01842F90E2811162
:100E100008C0A40FB11D1C9290E080E002CF81E3D6
:100E2000F1CF91938150F3CF911183CF8ACF2830A6
:100E300008F027E03327DA01990F311D87FD916013
:100E400000966105710539F432602E5F3D9330E301
:100E50002A95E1F708959F3F30F0803871056105CC
:100E600009F03C5F3C5F3D93913008F08068911D34
:100E7000DF93CF931F930F93FF92EF92192F987FD9
:100E80009695E92F96959695E90FFF27EE53FF4F1C
:100E900099273327EE24FF24A701E7010590089442
:100EA000079428F4360FE71EF81E491F511D660FE0
:100EB000771F881F991F0694A1F70590079428F4BF
:100EC000E70EF81E491F561FC11D770F881F991F77
:100ED000661F0694A1F70590079428F4F80E491FA1
:100EE000561FC71FD11D880F991F661F771F0694B5
:100EF000A1F70590079420F4490F561FC71FD81F6C
:100F0000990F661F771F881F0694A9F78491109583
:100F1000177041F0D695C79557954795F794E79484
:100F20001A95C1F7E8E6F0E06894159015913591AF
:100F30006591959105907FE27395E118F10A430B55
:100F4000560BC90BD009C0F7E10CF11E431F561F09
:100F5000C91FD01D7EF4703311F48A95E6CFE89452
:100F6000015030F0080F0AF40027021708F4202F70
:100F70002395022F7A3328F079E37D932A95E9F7B8
:100F800010C07D932A9589F60694979567953795B5
:100F900017951794E118F10A430B560BC90BD009AA
:100FA00098F023957E9173957A3308F070E37C93E3
:100FB0002013B8F77E9170617D9330F0839571E3D3
:100FC0007D9370E32A95E1F71124EF90FF900F9144
:100FD0001F91CF91DF91992787FD90950895E8940F
:100FE00009C097FB3EF490958095709561957F4F71
:100FF0008F4F9F4F9923A9F0F92F96E9BB2793951F
:10100000F695879577956795B795F111F8CFFAF42E
:10101000BB0F11F460FF1BC06F5F7F4F8F4F9F4F5F
:1010200016C0882311F096E911C0772321F09EE8BD
:10103000872F762F05C0662371F096E8862F70E023
:1010400060E02AF09A95660F771F881FDAF7880FFD
:101050009695879597F90895990F0008550FAA0B53
:10106000E0E8FEEF16161706E807F907C0F01216BB
:101070001306E407F50798F0621B730B840B950BBE
:1010800039F40A2661F0232B242B252B21F4089513
:101090000A2609F4A140A6958FEF811D811D0895B0
:1010A00097F99F6780E870E060E008959FEF80EC1B
:1010B000089500240A9416161706180609060895BE
:1010C00000240A9412161306140605060895092E24
:1010D0000394000C11F4882352F0BB0F40F4BF2B93
:1010E00011F460FF04C06F5F7F4F8F4F9F4F0895D3
:1010F00057FD9058440F551F59F05F3F71F04795C9
:10110000880F97FB991F61F09F3F79F087950895AD
:10111000121613061406551FF2CF4695F1DF08C0CC
:10112000161617061806991FF1CF869571056105E9
:1011300008940895E894BB2766277727CB0197F991
:1011400008952F923F924F925F926F927F928F926B
:101150009F92AF92BF92CF92DF92EF92FF920F9346
:101160001F93CF93DF93CDB7DEB7CA1BDB0B0FB650
:10117000F894DEBF0FBECDBF09942A88398848880D
:101180005F846E847D848C849B84AA84B984C884A3
:10119000DF80EE80FD800C811B81AA81B981CE0F9A
:1011A000D11D0FB6F894DEBF0FBECDBFED0108957F
:1011B0000E94EC080C9467080E94600858F00E9496
:1011C000590840F029F45F3F29F00C945008511160
:1011D0000C949B080C9456080E94780868F3992395
:1011E000B1F3552391F3951B550BBB27AA27621723
:1011F0007307840738F09F5F5F4F220F331F441F30
:10120000AA1FA9F335D00E2E3AF0E0E832D0915063
:101210005040E695001CCAF72BD0FE2F29D0660F50
:10122000771F881FBB1F261737074807AB07B0E893
:1012300009F0BB0B802DBF01FF2793585F4F3AF099
:101240009E3F510578F00C9450080C949B085F3F2A
:10125000E4F3983ED4F3869577956795B795F7951F
:101260009F5FC9F7880F911D9695879597F9089507
:10127000E1E0660F771F881FBB1F621773078407A3
:10128000BA0720F0621B730B840BBA0BEE1F88F7B2
:10129000E09508950E942C0808F48FEF0895EE0F52
:1012A000FF1F0590F491E02D09940F931F93CF93A6
:1012B000DF938230910510F482E090E0E0917D01AF
:1012C000F0917E0130E020E0B0E0A0E0309799F4AA
:1012D0002115310509F44AC0281B390B243031058A
:1012E000D8F58A819B816115710589F1FB01938392
:1012F0008283FE0111C04081518102811381481710
:101300005907E0F04817590799F4109761F01296C1
:101310000C93129713961C933296CF01DF91CF91C5
:101320001F910F91089500937D0110937E01F4CFDA
:101330002115310551F04217530738F0A901DB019F
:101340009A01BD01DF01F801C1CFEF01F9CF909300
:101350007E0180937D01CDCFFE01E20FF31F8193CB
:1013600091932250310939832883D7CF20917B0173
:1013700030917C01232B41F4209102013091030133
:1013800030937C0120937B01209100013091010179
:101390002115310541F42DB73EB74091040150911C
:1013A0000501241B350BE0917B01F0917C01E217D4
:1013B000F307A0F42E1B3F0B2817390778F0AC0178
:1013C0004E5F5F4F2417350748F04E0F5F1F509355
:1013D0007C0140937B01819391939FCFF0E0E0E00B
:1013E0009CCFCF93DF930097E9F0FC0132971382F3
:1013F0001282A0917D01B0917E01ED0130E020E0EC
:101400001097A1F420813181820F931F20917B01DD
:1014100030917C012817390709F061C0F0937C01F5
:10142000E0937B01DF91CF910895EA01CE17DF07AA
:10143000E8F54A815B819E0141155105B1F7E9014B
:10144000FB83EA8349915991C40FD51FEC17FD071F
:1014500061F4808191810296840F951FE90199833F
:101460008883828193819B838A83F0E0E0E01296F7
:101470008D919C9113970097B9F52D913C911197FF
:10148000CD010296820F931F20917B0130917C0148
:101490002817390739F6309751F510927E011092CE
:1014A0007D01B0937C01A0937B01BCCFD383C28329
:1014B00040815181840F951FC817D90761F44E5F91
:1014C0005F4F88819981480F591F518340838A81DA
:1014D0009B81938382832115310509F0B0CFF0936E
:1014E0007E01E0937D019ECFFD01DC01C0CF138220
:1014F0001282D7CFB0E0A0E0E0E8FAE00C94A308B5
:101500008C01009751F4CB010E9455098C01C80150
:10151000CDB7DEB7E0E10C94BF08FC01E60FF71F82
:101520009C0122503109E217F30708F49DC0D9014C
:10153000CD91DC911197C617D70798F0C530D1052A
:1015400030F3CE0104978617970708F3C61BD70B15
:101550002297C193D1936D937C93CF010E94F1099F
:10156000D6CF5B01AC1ABD0A4C018C0E9D1EA0911A
:101570007D01B0917E01512C412CF12CE12C109772
:1015800031F580917B0190917C018815990509F0D6
:101590005CC04616570608F058C080910001909133
:1015A0000101009741F48DB79EB74091040150911D
:1015B0000501841B950BE817F90708F055C0F09357
:1015C0007C01E0937B01F90171836083A0CF8D9151
:1015D0009C91119712966C90129713967C9013978A
:1015E000A815B90559F56C0142E0C40ED11CCA1406
:1015F000DB0420F1AC014A195B09DA011296159758
:1016000080F06282738251834083D9016D937C9311
:10161000E114F10471F0D7011396FC93EE93129745
:1016200076CF22968C0F9D1FF90191838083F30161
:10163000EFCFF0937E01E0937D0169CF4816590604
:1016400008F42C017D01D3019ACFCB010E945509EA
:101650007C01009749F0AE01B8010E94370BC80128
:101660000E94F109870153CF10E000E050CFFB0149
:10167000DC0102C001900D9241505040D8F708950E
:10168000FB01DC0101900D920020E1F70895F89430
:02169000FFCF8A
:1016920000007F018000000000008F0309011A0290
:1016A20019022020202057454C2D434F4D45202024
:1016B2002020004D6F697374757265204C657665E4
:1016C2006C0020250020204649454C4420495320E7
:1016D20057455420200020204649454C4420495378
:0816E2002044525920200000B1
:00000001FF
